{
  "_format": "hh-sol-artifact-1",
  "contractName": "PortalGun",
  "sourceName": "contracts/PortalGun.sol",
  "abi": [
    {
      "inputs": [
        {
          "internalType": "string",
          "name": "_baseURI",
          "type": "string"
        }
      ],
      "stateMutability": "nonpayable",
      "type": "constructor"
    },
    {
      "anonymous": false,
      "inputs": [
        {
          "indexed": true,
          "internalType": "address",
          "name": "account",
          "type": "address"
        },
        {
          "indexed": true,
          "internalType": "address",
          "name": "operator",
          "type": "address"
        },
        {
          "indexed": false,
          "internalType": "bool",
          "name": "approved",
          "type": "bool"
        }
      ],
      "name": "ApprovalForAll",
      "type": "event"
    },
    {
      "anonymous": false,
      "inputs": [
        {
          "indexed": false,
          "internalType": "address",
          "name": "owner",
          "type": "address"
        },
        {
          "indexed": false,
          "internalType": "uint256",
          "name": "tokenId",
          "type": "uint256"
        },
        {
          "indexed": false,
          "internalType": "uint8",
          "name": "amount",
          "type": "uint8"
        }
      ],
      "name": "GunsMinted",
      "type": "event"
    },
    {
      "anonymous": false,
      "inputs": [
        {
          "indexed": false,
          "internalType": "uint256",
          "name": "itemId",
          "type": "uint256"
        }
      ],
      "name": "ItemAdded",
      "type": "event"
    },
    {
      "anonymous": false,
      "inputs": [
        {
          "indexed": false,
          "internalType": "uint256",
          "name": "oldCost",
          "type": "uint256"
        },
        {
          "indexed": false,
          "internalType": "uint256",
          "name": "newCost",
          "type": "uint256"
        }
      ],
      "name": "ItemCostUpdated",
      "type": "event"
    },
    {
      "anonymous": false,
      "inputs": [
        {
          "indexed": false,
          "internalType": "address",
          "name": "destroyer",
          "type": "address"
        },
        {
          "indexed": false,
          "internalType": "uint256",
          "name": "itemId",
          "type": "uint256"
        },
        {
          "indexed": false,
          "internalType": "uint256",
          "name": "amount",
          "type": "uint256"
        }
      ],
      "name": "ItemDestroyed",
      "type": "event"
    },
    {
      "anonymous": false,
      "inputs": [
        {
          "indexed": false,
          "internalType": "uint256",
          "name": "itemId",
          "type": "uint256"
        }
      ],
      "name": "ItemDisabled",
      "type": "event"
    },
    {
      "anonymous": false,
      "inputs": [
        {
          "indexed": false,
          "internalType": "address",
          "name": "purchaser",
          "type": "address"
        },
        {
          "indexed": false,
          "internalType": "uint256",
          "name": "itemId",
          "type": "uint256"
        },
        {
          "indexed": false,
          "internalType": "uint256",
          "name": "amount",
          "type": "uint256"
        }
      ],
      "name": "ItemPurchased",
      "type": "event"
    },
    {
      "anonymous": false,
      "inputs": [
        {
          "indexed": true,
          "internalType": "address",
          "name": "previousOwner",
          "type": "address"
        },
        {
          "indexed": true,
          "internalType": "address",
          "name": "newOwner",
          "type": "address"
        }
      ],
      "name": "OwnershipTransferred",
      "type": "event"
    },
    {
      "anonymous": false,
      "inputs": [
        {
          "indexed": false,
          "internalType": "address",
          "name": "account",
          "type": "address"
        }
      ],
      "name": "Paused",
      "type": "event"
    },
    {
      "anonymous": false,
      "inputs": [
        {
          "indexed": false,
          "internalType": "bool",
          "name": "previous",
          "type": "bool"
        },
        {
          "indexed": false,
          "internalType": "bool",
          "name": "current",
          "type": "bool"
        }
      ],
      "name": "PublicSaleStatusFlipped",
      "type": "event"
    },
    {
      "anonymous": false,
      "inputs": [
        {
          "indexed": true,
          "internalType": "address",
          "name": "operator",
          "type": "address"
        },
        {
          "indexed": true,
          "internalType": "address",
          "name": "from",
          "type": "address"
        },
        {
          "indexed": true,
          "internalType": "address",
          "name": "to",
          "type": "address"
        },
        {
          "indexed": false,
          "internalType": "uint256[]",
          "name": "ids",
          "type": "uint256[]"
        },
        {
          "indexed": false,
          "internalType": "uint256[]",
          "name": "values",
          "type": "uint256[]"
        }
      ],
      "name": "TransferBatch",
      "type": "event"
    },
    {
      "anonymous": false,
      "inputs": [
        {
          "indexed": true,
          "internalType": "address",
          "name": "operator",
          "type": "address"
        },
        {
          "indexed": true,
          "internalType": "address",
          "name": "from",
          "type": "address"
        },
        {
          "indexed": true,
          "internalType": "address",
          "name": "to",
          "type": "address"
        },
        {
          "indexed": false,
          "internalType": "uint256",
          "name": "id",
          "type": "uint256"
        },
        {
          "indexed": false,
          "internalType": "uint256",
          "name": "value",
          "type": "uint256"
        }
      ],
      "name": "TransferSingle",
      "type": "event"
    },
    {
      "anonymous": false,
      "inputs": [
        {
          "indexed": false,
          "internalType": "string",
          "name": "value",
          "type": "string"
        },
        {
          "indexed": true,
          "internalType": "uint256",
          "name": "id",
          "type": "uint256"
        }
      ],
      "name": "URI",
      "type": "event"
    },
    {
      "anonymous": false,
      "inputs": [
        {
          "indexed": false,
          "internalType": "address",
          "name": "account",
          "type": "address"
        }
      ],
      "name": "Unpaused",
      "type": "event"
    },
    {
      "anonymous": false,
      "inputs": [
        {
          "indexed": false,
          "internalType": "string",
          "name": "uri",
          "type": "string"
        }
      ],
      "name": "UpdateBaseURI",
      "type": "event"
    },
    {
      "anonymous": false,
      "inputs": [
        {
          "indexed": false,
          "internalType": "address",
          "name": "injector",
          "type": "address"
        }
      ],
      "name": "UpdateInjector",
      "type": "event"
    },
    {
      "inputs": [],
      "name": "MAX_GOLD_GUNS",
      "outputs": [
        {
          "internalType": "uint8",
          "name": "",
          "type": "uint8"
        }
      ],
      "stateMutability": "view",
      "type": "function"
    },
    {
      "inputs": [],
      "name": "MAX_GUNS",
      "outputs": [
        {
          "internalType": "uint16",
          "name": "",
          "type": "uint16"
        }
      ],
      "stateMutability": "view",
      "type": "function"
    },
    {
      "inputs": [],
      "name": "MAX_PER_TX",
      "outputs": [
        {
          "internalType": "uint8",
          "name": "",
          "type": "uint8"
        }
      ],
      "stateMutability": "view",
      "type": "function"
    },
    {
      "inputs": [
        {
          "internalType": "address",
          "name": "account",
          "type": "address"
        },
        {
          "internalType": "uint256",
          "name": "id",
          "type": "uint256"
        }
      ],
      "name": "balanceOf",
      "outputs": [
        {
          "internalType": "uint256",
          "name": "",
          "type": "uint256"
        }
      ],
      "stateMutability": "view",
      "type": "function"
    },
    {
      "inputs": [
        {
          "internalType": "address[]",
          "name": "accounts",
          "type": "address[]"
        },
        {
          "internalType": "uint256[]",
          "name": "ids",
          "type": "uint256[]"
        }
      ],
      "name": "balanceOfBatch",
      "outputs": [
        {
          "internalType": "uint256[]",
          "name": "",
          "type": "uint256[]"
        }
      ],
      "stateMutability": "view",
      "type": "function"
    },
    {
      "inputs": [],
      "name": "currentMintCost",
      "outputs": [
        {
          "internalType": "uint256",
          "name": "cost",
          "type": "uint256"
        }
      ],
      "stateMutability": "view",
      "type": "function"
    },
    {
      "inputs": [
        {
          "internalType": "uint256",
          "name": "itemId",
          "type": "uint256"
        },
        {
          "internalType": "uint256",
          "name": "amount",
          "type": "uint256"
        }
      ],
      "name": "destroyItem",
      "outputs": [],
      "stateMutability": "nonpayable",
      "type": "function"
    },
    {
      "inputs": [],
      "name": "flipPublicSaleStatus",
      "outputs": [],
      "stateMutability": "nonpayable",
      "type": "function"
    },
    {
      "inputs": [
        {
          "internalType": "address",
          "name": "account",
          "type": "address"
        },
        {
          "internalType": "address",
          "name": "operator",
          "type": "address"
        }
      ],
      "name": "isApprovedForAll",
      "outputs": [
        {
          "internalType": "bool",
          "name": "",
          "type": "bool"
        }
      ],
      "stateMutability": "view",
      "type": "function"
    },
    {
      "inputs": [
        {
          "internalType": "uint256",
          "name": "",
          "type": "uint256"
        }
      ],
      "name": "itemIds",
      "outputs": [
        {
          "internalType": "uint256",
          "name": "",
          "type": "uint256"
        }
      ],
      "stateMutability": "view",
      "type": "function"
    },
    {
      "inputs": [
        {
          "internalType": "uint256[]",
          "name": "ids",
          "type": "uint256[]"
        },
        {
          "internalType": "uint256[]",
          "name": "amounts",
          "type": "uint256[]"
        }
      ],
      "name": "mintBatch",
      "outputs": [],
      "stateMutability": "nonpayable",
      "type": "function"
    },
    {
      "inputs": [
        {
          "internalType": "uint256[]",
          "name": "ids",
          "type": "uint256[]"
        },
        {
          "internalType": "uint256[]",
          "name": "amounts",
          "type": "uint256[]"
        },
        {
          "internalType": "address",
          "name": "to",
          "type": "address"
        }
      ],
      "name": "mintBatchFor",
      "outputs": [],
      "stateMutability": "nonpayable",
      "type": "function"
    },
    {
      "inputs": [
        {
          "internalType": "uint8",
          "name": "amount",
          "type": "uint8"
        }
      ],
      "name": "mintPublicSale",
      "outputs": [],
      "stateMutability": "payable",
      "type": "function"
    },
    {
      "inputs": [
        {
          "internalType": "address",
          "name": "",
          "type": "address"
        },
        {
          "internalType": "address",
          "name": "",
          "type": "address"
        },
        {
          "internalType": "uint256[]",
          "name": "",
          "type": "uint256[]"
        },
        {
          "internalType": "uint256[]",
          "name": "",
          "type": "uint256[]"
        },
        {
          "internalType": "bytes",
          "name": "",
          "type": "bytes"
        }
      ],
      "name": "onERC1155BatchReceived",
      "outputs": [
        {
          "internalType": "bytes4",
          "name": "",
          "type": "bytes4"
        }
      ],
      "stateMutability": "nonpayable",
      "type": "function"
    },
    {
      "inputs": [
        {
          "internalType": "address",
          "name": "",
          "type": "address"
        },
        {
          "internalType": "address",
          "name": "",
          "type": "address"
        },
        {
          "internalType": "uint256",
          "name": "",
          "type": "uint256"
        },
        {
          "internalType": "uint256",
          "name": "",
          "type": "uint256"
        },
        {
          "internalType": "bytes",
          "name": "",
          "type": "bytes"
        }
      ],
      "name": "onERC1155Received",
      "outputs": [
        {
          "internalType": "bytes4",
          "name": "",
          "type": "bytes4"
        }
      ],
      "stateMutability": "nonpayable",
      "type": "function"
    },
    {
      "inputs": [],
      "name": "owner",
      "outputs": [
        {
          "internalType": "address",
          "name": "",
          "type": "address"
        }
      ],
      "stateMutability": "view",
      "type": "function"
    },
    {
      "inputs": [],
      "name": "pause",
      "outputs": [],
      "stateMutability": "nonpayable",
      "type": "function"
    },
    {
      "inputs": [],
      "name": "paused",
      "outputs": [
        {
          "internalType": "bool",
          "name": "",
          "type": "bool"
        }
      ],
      "stateMutability": "view",
      "type": "function"
    },
    {
      "inputs": [],
      "name": "publicSaleActive",
      "outputs": [
        {
          "internalType": "bool",
          "name": "",
          "type": "bool"
        }
      ],
      "stateMutability": "view",
      "type": "function"
    },
    {
      "inputs": [],
      "name": "publicSaleCost",
      "outputs": [
        {
          "internalType": "uint256",
          "name": "",
          "type": "uint256"
        }
      ],
      "stateMutability": "view",
      "type": "function"
    },
    {
      "inputs": [
        {
          "internalType": "uint256",
          "name": "",
          "type": "uint256"
        }
      ],
      "name": "registeredItems",
      "outputs": [
        {
          "internalType": "bool",
          "name": "",
          "type": "bool"
        }
      ],
      "stateMutability": "view",
      "type": "function"
    },
    {
      "inputs": [],
      "name": "renounceOwnership",
      "outputs": [],
      "stateMutability": "nonpayable",
      "type": "function"
    },
    {
      "inputs": [
        {
          "internalType": "address",
          "name": "from",
          "type": "address"
        },
        {
          "internalType": "address",
          "name": "to",
          "type": "address"
        },
        {
          "internalType": "uint256[]",
          "name": "ids",
          "type": "uint256[]"
        },
        {
          "internalType": "uint256[]",
          "name": "amounts",
          "type": "uint256[]"
        },
        {
          "internalType": "bytes",
          "name": "data",
          "type": "bytes"
        }
      ],
      "name": "safeBatchTransferFrom",
      "outputs": [],
      "stateMutability": "nonpayable",
      "type": "function"
    },
    {
      "inputs": [
        {
          "internalType": "address",
          "name": "from",
          "type": "address"
        },
        {
          "internalType": "address",
          "name": "to",
          "type": "address"
        },
        {
          "internalType": "uint256",
          "name": "id",
          "type": "uint256"
        },
        {
          "internalType": "uint256",
          "name": "amount",
          "type": "uint256"
        },
        {
          "internalType": "bytes",
          "name": "data",
          "type": "bytes"
        }
      ],
      "name": "safeTransferFrom",
      "outputs": [],
      "stateMutability": "nonpayable",
      "type": "function"
    },
    {
      "inputs": [
        {
          "internalType": "address",
          "name": "operator",
          "type": "address"
        },
        {
          "internalType": "bool",
          "name": "approved",
          "type": "bool"
        }
      ],
      "name": "setApprovalForAll",
      "outputs": [],
      "stateMutability": "nonpayable",
      "type": "function"
    },
    {
      "inputs": [
        {
          "internalType": "bytes4",
          "name": "interfaceId",
          "type": "bytes4"
        }
      ],
      "name": "supportsInterface",
      "outputs": [
        {
          "internalType": "bool",
          "name": "",
          "type": "bool"
        }
      ],
      "stateMutability": "view",
      "type": "function"
    },
    {
      "inputs": [],
      "name": "totalGoldGunsMinted",
      "outputs": [
        {
          "internalType": "uint8",
          "name": "",
          "type": "uint8"
        }
      ],
      "stateMutability": "view",
      "type": "function"
    },
    {
      "inputs": [],
      "name": "totalGunsMinted",
      "outputs": [
        {
          "internalType": "uint16",
          "name": "",
          "type": "uint16"
        }
      ],
      "stateMutability": "view",
      "type": "function"
    },
    {
      "inputs": [
        {
          "internalType": "uint256",
          "name": "itemId",
          "type": "uint256"
        }
      ],
      "name": "transferItems",
      "outputs": [],
      "stateMutability": "nonpayable",
      "type": "function"
    },
    {
      "inputs": [
        {
          "internalType": "address",
          "name": "newOwner",
          "type": "address"
        }
      ],
      "name": "transferOwnership",
      "outputs": [],
      "stateMutability": "nonpayable",
      "type": "function"
    },
    {
      "inputs": [],
      "name": "unpause",
      "outputs": [],
      "stateMutability": "nonpayable",
      "type": "function"
    },
    {
      "inputs": [
        {
          "internalType": "string",
          "name": "_baseURI",
          "type": "string"
        }
      ],
      "name": "updateBaseUri",
      "outputs": [],
      "stateMutability": "nonpayable",
      "type": "function"
    },
    {
      "inputs": [
        {
          "internalType": "uint256",
          "name": "cost",
          "type": "uint256"
        }
      ],
      "name": "updatePublicSaleCost",
      "outputs": [],
      "stateMutability": "nonpayable",
      "type": "function"
    },
    {
      "inputs": [
        {
          "internalType": "uint256",
          "name": "typeId",
          "type": "uint256"
        }
      ],
      "name": "uri",
      "outputs": [
        {
          "internalType": "string",
          "name": "",
          "type": "string"
        }
      ],
      "stateMutability": "view",
      "type": "function"
    },
    {
      "inputs": [],
      "name": "withdraw",
      "outputs": [],
      "stateMutability": "nonpayable",
      "type": "function"
    }
  ],
  "bytecode": "0x60806040523480156200001157600080fd5b5060405162003516380380620035168339810160408190526200003491620001fc565b806200004033620000ed565b6200004b816200013d565b506004805460ff1916905580516200006b90600590602084019062000156565b505060096020527fec8156718a8372b1db44bb411437d0870f3e3790d4a08526d024ce1b0b668f6b8054600160ff19918216811790925560008290527f92e85d02570a8092d09a6e3a57665bc3815a2699a4074001bf1ccabf660f5a3680548216831790556007805490911690911790556658d15e1762800060085562000325565b600080546001600160a01b038381166001600160a01b0319831681178455604051919092169283917f8be0079c531659141344cd1fd0a4f28419497f9722a3daafe3b4186f6b6457e09190a35050565b80516200015290600390602084019062000156565b5050565b8280546200016490620002d2565b90600052602060002090601f016020900481019282620001885760008555620001d3565b82601f10620001a357805160ff1916838001178555620001d3565b82800160010185558215620001d3579182015b82811115620001d3578251825591602001919060010190620001b6565b50620001e1929150620001e5565b5090565b5b80821115620001e15760008155600101620001e6565b600060208083850312156200020f578182fd5b82516001600160401b038082111562000226578384fd5b818501915085601f8301126200023a578384fd5b8151818111156200024f576200024f6200030f565b604051601f8201601f19908116603f011681019083821181831017156200027a576200027a6200030f565b81604052828152888684870101111562000292578687fd5b8693505b82841015620002b5578484018601518185018701529285019262000296565b82841115620002c657868684830101525b98975050505050505050565b600181811c90821680620002e757607f821691505b602082108114156200030957634e487b7160e01b600052602260045260246000fd5b50919050565b634e487b7160e01b600052604160045260246000fd5b6131e180620003356000396000f3fe6080604052600436106102335760003560e01c8063854797e911610138578063cac254ed116100b0578063f23a6e611161007f578063f2fde38b11610064578063f2fde38b14610693578063f43a22dc146106b3578063f75e16b3146106c857600080fd5b8063f23a6e6114610647578063f242432a1461067357600080fd5b8063cac254ed1461059d578063d351cfdc146105be578063d5a3deca146105de578063e985e9c5146105fe57600080fd5b8063b5b781c511610107578063bc197c81116100ec578063bc197c811461052b578063bc8893b414610570578063c31f2d1d1461058a57600080fd5b8063b5b781c5146104f6578063b9f758921461050b57600080fd5b8063854797e9146104795780638da5cb5b1461048e578063a22cb465146104b6578063b3dc00fe146104d657600080fd5b8063453afb0f116101cb5780635f09c7821161019a57806365dd80a01161017f57806365dd80a01461042f578063715018a61461044f5780638456cb591461046457600080fd5b80635f09c782146103e8578063605d591b1461040857600080fd5b8063453afb0f1461035d57806348d9b402146103735780634e1273f4146103a35780635c975abb146103d057600080fd5b806339f7e37f1161020757806339f7e37f146102ea5780633abafd371461030a5780633ccfd60b146103335780633f4ba83a1461034857600080fd5b8062fdd58e1461023857806301ffc9a71461026b5780630e89341c1461029b5780632eb2c2d6146102c8575b600080fd5b34801561024457600080fd5b50610258610253366004612a48565b6106e8565b6040519081526020015b60405180910390f35b34801561027757600080fd5b5061028b610286366004612bf7565b610793565b6040519015158152602001610262565b3480156102a757600080fd5b506102bb6102b6366004612c75565b6107a4565b6040516102629190612e97565b3480156102d457600080fd5b506102e86102e3366004612905565b610902565b005b3480156102f657600080fd5b506102e8610305366004612c2f565b6109a4565b34801561031657600080fd5b506103206108ca81565b60405161ffff9091168152602001610262565b34801561033f57600080fd5b506102e8610a44565b34801561035457600080fd5b506102e8610abf565b34801561036957600080fd5b5061025860085481565b34801561037f57600080fd5b5061028b61038e366004612c75565b60096020526000908152604090205460ff1681565b3480156103af57600080fd5b506103c36103be366004612a71565b610b63565b6040516102629190612e56565b3480156103dc57600080fd5b5060045460ff1661028b565b3480156103f457600080fd5b506102e8610403366004612c8d565b610cd9565b34801561041457600080fd5b5061041d60fa81565b60405160ff9091168152602001610262565b34801561043b57600080fd5b506102e861044a366004612c75565b610d6f565b34801561045b57600080fd5b506102e8610ddf565b34801561047057600080fd5b506102e8610e31565b34801561048557600080fd5b50600854610258565b34801561049a57600080fd5b506000546040516001600160a01b039091168152602001610262565b3480156104c257600080fd5b506102e86104d1366004612a0e565b610ec7565b3480156104e257600080fd5b506102586104f1366004612c75565b610ed2565b34801561050257600080fd5b506102e8610ef3565b34801561051757600080fd5b5060045461032090610100900461ffff1681565b34801561053757600080fd5b50610557610546366004612905565b63bc197c8160e01b95945050505050565b6040516001600160e01b03199091168152602001610262565b34801561057c57600080fd5b5060075461028b9060ff1681565b6102e8610598366004612cae565b610f90565b3480156105a957600080fd5b5060045461041d906301000000900460ff1681565b3480156105ca57600080fd5b506102e86105d9366004612b3c565b6110a1565b3480156105ea57600080fd5b506102e86105f9366004612b86565b611115565b34801561060a57600080fd5b5061028b6106193660046128d3565b6001600160a01b03918216600090815260026020908152604080832093909416825291909152205460ff1690565b34801561065357600080fd5b506105576106623660046129ab565b63f23a6e6160e01b95945050505050565b34801561067f57600080fd5b506102e861068e3660046129ab565b61117d565b34801561069f57600080fd5b506102e86106ae3660046128b9565b611218565b3480156106bf57600080fd5b5061041d600a81565b3480156106d457600080fd5b506102e86106e3366004612c75565b6112e5565b60006001600160a01b03831661076b5760405162461bcd60e51b815260206004820152602b60248201527f455243313135353a2062616c616e636520717565727920666f7220746865207a60448201527f65726f206164647265737300000000000000000000000000000000000000000060648201526084015b60405180910390fd5b5060009081526001602090815260408083206001600160a01b03949094168352929052205490565b600061079e82611332565b92915050565b60008181526009602052604090205460609060ff1661082b5760405162461bcd60e51b815260206004820152602360248201527f5552492072657175657374656420666f7220696e76616c6964206974656d207460448201527f79706500000000000000000000000000000000000000000000000000000000006064820152608401610762565b60006005805461083a90613023565b9050116108d1576005805461084e90613023565b80601f016020809104026020016040519081016040528092919081815260200182805461087a90613023565b80156108c75780601f1061089c576101008083540402835291602001916108c7565b820191906000526020600020905b8154815290600101906020018083116108aa57829003601f168201915b505050505061079e565b60056108dc83611370565b6040516020016108ed929190612d35565b60405160208183030381529060405292915050565b6001600160a01b03851633148061091e575061091e8533610619565b6109905760405162461bcd60e51b815260206004820152603260248201527f455243313135353a207472616e736665722063616c6c6572206973206e6f742060448201527f6f776e6572206e6f7220617070726f76656400000000000000000000000000006064820152608401610762565b61099d85858585856114c6565b5050505050565b6000546001600160a01b031633146109ec5760405162461bcd60e51b815260206004820181905260248201526000805160206131b58339815191526044820152606401610762565b80516109ff90600590602084019061270c565b50610a0981611751565b7f157d450c8fb1377294d9db75af1de2753efc52d8e5578551d70d2c7d9cd74df96005604051610a399190612eaa565b60405180910390a150565b6000546001600160a01b03163314610a8c5760405162461bcd60e51b815260206004820181905260248201526000805160206131b58339815191526044820152606401610762565b6040514790339082156108fc029083906000818181858888f19350505050158015610abb573d6000803e3d6000fd5b5050565b6000546001600160a01b03163314610b075760405162461bcd60e51b815260206004820181905260248201526000805160206131b58339815191526044820152606401610762565b60045460ff16610b595760405162461bcd60e51b815260206004820152601460248201527f5061757361626c653a206e6f74207061757365640000000000000000000000006044820152606401610762565b610b61611764565b565b60608151835114610bdc5760405162461bcd60e51b815260206004820152602960248201527f455243313135353a206163636f756e747320616e6420696473206c656e67746860448201527f206d69736d6174636800000000000000000000000000000000000000000000006064820152608401610762565b6000835167ffffffffffffffff811115610c0657634e487b7160e01b600052604160045260246000fd5b604051908082528060200260200182016040528015610c2f578160200160208202803683370190505b50905060005b8451811015610cd157610c96858281518110610c6157634e487b7160e01b600052603260045260246000fd5b6020026020010151858381518110610c8957634e487b7160e01b600052603260045260246000fd5b60200260200101516106e8565b828281518110610cb657634e487b7160e01b600052603260045260246000fd5b6020908102919091010152610cca8161308b565b9050610c35565b509392505050565b60045460ff1615610d1f5760405162461bcd60e51b815260206004820152601060248201526f14185d5cd8589b194e881c185d5cd95960821b6044820152606401610762565b610d2a3383836117fb565b60408051338152602081018490529081018290527fd5a6b92e9ce7526b6436f01b4bf0d6647dfef511352212f6efab3e71cc4f67a39060600160405180910390a15050565b6000546001600160a01b03163314610db75760405162461bcd60e51b815260206004820181905260248201526000805160206131b58339815191526044820152606401610762565b610ddc303383610dc730866106e8565b6040518060200160405280600081525061117d565b50565b6000546001600160a01b03163314610e275760405162461bcd60e51b815260206004820181905260248201526000805160206131b58339815191526044820152606401610762565b610b6160006119ab565b6000546001600160a01b03163314610e795760405162461bcd60e51b815260206004820181905260248201526000805160206131b58339815191526044820152606401610762565b60045460ff1615610ebf5760405162461bcd60e51b815260206004820152601060248201526f14185d5cd8589b194e881c185d5cd95960821b6044820152606401610762565b610b61611a13565b610abb338383611a8e565b60068181548110610ee257600080fd5b600091825260209091200154905081565b6000546001600160a01b03163314610f3b5760405162461bcd60e51b815260206004820181905260248201526000805160206131b58339815191526044820152606401610762565b6007805460ff8082161560ff1990921682179092556040805191909216158082521560208201527fafc764693a27a006fd1d3b3d2332c689d79c83c614d5990e13aa4bfcc3ca9c4691015b60405180910390a1565b60075460ff16610fe25760405162461bcd60e51b815260206004820152601660248201527f7075626c69635f73616c655f6e6f745f616374697665000000000000000000006044820152606401610762565b60008160ff16116110355760405162461bcd60e51b815260206004820152600b60248201527f616d6f756e745f7a65726f0000000000000000000000000000000000000000006044820152606401610762565b8060ff166008546110469190612fbd565b3410156110955760405162461bcd60e51b815260206004820152601060248201527f6e6f745f656e6f7567685f6574686572000000000000000000000000000000006044820152606401610762565b610ddc33600083611b83565b6000546001600160a01b031633146110e95760405162461bcd60e51b815260206004820181905260248201526000805160206131b58339815191526044820152606401610762565b610abb6110fe6000546001600160a01b031690565b838360405180602001604052806000815250611dde565b6000546001600160a01b0316331461115d5760405162461bcd60e51b815260206004820181905260248201526000805160206131b58339815191526044820152606401610762565b61117881848460405180602001604052806000815250611dde565b505050565b6001600160a01b03851633148061119957506111998533610619565b61120b5760405162461bcd60e51b815260206004820152602960248201527f455243313135353a2063616c6c6572206973206e6f74206f776e6572206e6f7260448201527f20617070726f76656400000000000000000000000000000000000000000000006064820152608401610762565b61099d8585858585611fd0565b6000546001600160a01b031633146112605760405162461bcd60e51b815260206004820181905260248201526000805160206131b58339815191526044820152606401610762565b6001600160a01b0381166112dc5760405162461bcd60e51b815260206004820152602660248201527f4f776e61626c653a206e6577206f776e657220697320746865207a65726f206160448201527f64647265737300000000000000000000000000000000000000000000000000006064820152608401610762565b610ddc816119ab565b6000546001600160a01b0316331461132d5760405162461bcd60e51b815260206004820181905260248201526000805160206131b58339815191526044820152606401610762565b600855565b60006001600160e01b031982167f4e2312e000000000000000000000000000000000000000000000000000000000148061079e575061079e82612181565b6060816113b057505060408051808201909152600181527f3000000000000000000000000000000000000000000000000000000000000000602082015290565b8160005b81156113da57806113c48161308b565b91506113d39050600a83612fa9565b91506113b4565b60008167ffffffffffffffff81111561140357634e487b7160e01b600052604160045260246000fd5b6040519080825280601f01601f19166020018201604052801561142d576020820181803683370190505b5090505b84156114be57611442600183612fdc565b915061144f600a866130a6565b61145a906030612f6c565b60f81b81838151811061147d57634e487b7160e01b600052603260045260246000fd5b60200101907effffffffffffffffffffffffffffffffffffffffffffffffffffffffffffff1916908160001a9053506114b7600a86612fa9565b9450611431565b949350505050565b81518351146115285760405162461bcd60e51b815260206004820152602860248201527f455243313135353a2069647320616e6420616d6f756e7473206c656e677468206044820152670dad2e6dac2e8c6d60c31b6064820152608401610762565b6001600160a01b03841661158c5760405162461bcd60e51b815260206004820152602560248201527f455243313135353a207472616e7366657220746f20746865207a65726f206164604482015264647265737360d81b6064820152608401610762565b3361159b81878787878761221c565b60005b84518110156116e35760008582815181106115c957634e487b7160e01b600052603260045260246000fd5b6020026020010151905060008583815181106115f557634e487b7160e01b600052603260045260246000fd5b60209081029190910181015160008481526001835260408082206001600160a01b038e1683529093529190912054909150818110156116895760405162461bcd60e51b815260206004820152602a60248201527f455243313135353a20696e73756666696369656e742062616c616e636520666f60448201526939103a3930b739b332b960b11b6064820152608401610762565b60008381526001602090815260408083206001600160a01b038e8116855292528083208585039055908b168252812080548492906116c8908490612f6c565b92505081905550505050806116dc9061308b565b905061159e565b50846001600160a01b0316866001600160a01b0316826001600160a01b03167f4a39dc06d4c0dbc64b70af90fd698a233a518aa5d07e595d983b8c0526c8f7fb8787604051611733929190612e69565b60405180910390a4611749818787878787612295565b505050505050565b8051610abb90600390602084019061270c565b60045460ff166117b65760405162461bcd60e51b815260206004820152601460248201527f5061757361626c653a206e6f74207061757365640000000000000000000000006044820152606401610762565b6004805460ff191690557f5db9ee0a495bf2e6ff9c91a7834c1ba4fdd244a5e8aa4e537bd38aeae4b073aa335b6040516001600160a01b039091168152602001610f86565b6001600160a01b0383166118775760405162461bcd60e51b815260206004820152602360248201527f455243313135353a206275726e2066726f6d20746865207a65726f206164647260448201527f65737300000000000000000000000000000000000000000000000000000000006064820152608401610762565b336118a6818560006118888761244a565b6118918761244a565b6040518060200160405280600081525061221c565b60008381526001602090815260408083206001600160a01b03881684529091529020548281101561193e5760405162461bcd60e51b8152602060048201526024808201527f455243313135353a206275726e20616d6f756e7420657863656564732062616c60448201527f616e6365000000000000000000000000000000000000000000000000000000006064820152608401610762565b60008481526001602090815260408083206001600160a01b03898116808652918452828520888703905582518981529384018890529092908616917fc3d58168c5ae7397731d063d5bbf3d657854427343f4c083240f7aacaa2d0f62910160405180910390a45050505050565b600080546001600160a01b038381167fffffffffffffffffffffffff0000000000000000000000000000000000000000831681178455604051919092169283917f8be0079c531659141344cd1fd0a4f28419497f9722a3daafe3b4186f6b6457e09190a35050565b60045460ff1615611a595760405162461bcd60e51b815260206004820152601060248201526f14185d5cd8589b194e881c185d5cd95960821b6044820152606401610762565b6004805460ff191660011790557f62e78cea01bee320cd4e420270b5ea74000d11b0c9f74754ebdbfc544b05a2586117e33390565b816001600160a01b0316836001600160a01b03161415611b165760405162461bcd60e51b815260206004820152602960248201527f455243313135353a2073657474696e6720617070726f76616c2073746174757360448201527f20666f722073656c6600000000000000000000000000000000000000000000006064820152608401610762565b6001600160a01b03838116600081815260026020908152604080832094871680845294825291829020805460ff191686151590811790915591519182527f17307eab39ab6107e8899845ad3d59bd9653f200f220920489ca2b5937696c31910160405180910390a3505050565b80611b9160fa6108ca612f4f565b60045461ffff9182169160ff80851692611bbc92630100000082049092169161010090910416612f4f565b611bc69190612f4f565b61ffff161115611c185760405162461bcd60e51b815260206004820152601360248201527f6d6178696d756d5f67756e735f6d696e746564000000000000000000000000006044820152606401610762565b600a60ff82161115611c6c5760405162461bcd60e51b815260206004820152601560248201527f616d6f756e745f657863656564735f74785f6d617800000000000000000000006044820152606401610762565b60005b8260ff16811015611d8c576000611c85856124a3565b600454909150610100810461ffff166108ca14906301000000900460ff1660fa14801581611cc457508180611cc45750611cc0600a846130a6565b6001145b15611d21576001600460038282829054906101000a900460ff16611ce89190612f84565b92506101000a81548160ff021916908360ff160217905550611d1c8860018060405180602001604052806000815250612502565b611d78565b6001600460018282829054906101000a900461ffff16611d419190612f4f565b92506101000a81548161ffff021916908361ffff160217905550611d78886000600160405180602001604052806000815250612502565b50505080611d859061308b565b9050611c6f565b50604080516001600160a01b03861681526020810185905260ff84168183015290517f8914acde3f17821ad609110a0a64bf9dd88cb8c677d47f47371b5fa6a74c42b99181900360600190a150505050565b6001600160a01b038416611e3e5760405162461bcd60e51b815260206004820152602160248201527f455243313135353a206d696e7420746f20746865207a65726f206164647265736044820152607360f81b6064820152608401610762565b8151835114611ea05760405162461bcd60e51b815260206004820152602860248201527f455243313135353a2069647320616e6420616d6f756e7473206c656e677468206044820152670dad2e6dac2e8c6d60c31b6064820152608401610762565b33611eb08160008787878761221c565b60005b8451811015611f6857838181518110611edc57634e487b7160e01b600052603260045260246000fd5b602002602001015160016000878481518110611f0857634e487b7160e01b600052603260045260246000fd5b602002602001015181526020019081526020016000206000886001600160a01b03166001600160a01b031681526020019081526020016000206000828254611f509190612f6c565b90915550819050611f608161308b565b915050611eb3565b50846001600160a01b031660006001600160a01b0316826001600160a01b03167f4a39dc06d4c0dbc64b70af90fd698a233a518aa5d07e595d983b8c0526c8f7fb8787604051611fb9929190612e69565b60405180910390a461099d81600087878787612295565b6001600160a01b0384166120345760405162461bcd60e51b815260206004820152602560248201527f455243313135353a207472616e7366657220746f20746865207a65726f206164604482015264647265737360d81b6064820152608401610762565b336120538187876120448861244a565b61204d8861244a565b8761221c565b60008481526001602090815260408083206001600160a01b038a168452909152902054838110156120d95760405162461bcd60e51b815260206004820152602a60248201527f455243313135353a20696e73756666696369656e742062616c616e636520666f60448201526939103a3930b739b332b960b11b6064820152608401610762565b60008581526001602090815260408083206001600160a01b038b8116855292528083208785039055908816825281208054869290612118908490612f6c565b909155505060408051868152602081018690526001600160a01b03808916928a821692918616917fc3d58168c5ae7397731d063d5bbf3d657854427343f4c083240f7aacaa2d0f62910160405180910390a4612178828888888888612601565b50505050505050565b60006001600160e01b031982167fd9b67a260000000000000000000000000000000000000000000000000000000014806121e457506001600160e01b031982167f0e89341c00000000000000000000000000000000000000000000000000000000145b8061079e57507f01ffc9a7000000000000000000000000000000000000000000000000000000006001600160e01b031983161461079e565b60045460ff16156117495760405162461bcd60e51b815260206004820152602c60248201527f455243313135355061757361626c653a20746f6b656e207472616e736665722060448201527f7768696c652070617573656400000000000000000000000000000000000000006064820152608401610762565b6001600160a01b0384163b156117495760405163bc197c8160e01b81526001600160a01b0385169063bc197c81906122d99089908990889088908890600401612db5565b602060405180830381600087803b1580156122f357600080fd5b505af1925050508015612323575060408051601f3d908101601f1916820190925261232091810190612c13565b60015b6123d95761232f6130fc565b806308c379a014156123695750612344613114565b8061234f575061236b565b8060405162461bcd60e51b81526004016107629190612e97565b505b60405162461bcd60e51b815260206004820152603460248201527f455243313135353a207472616e7366657220746f206e6f6e204552433131353560448201527f526563656976657220696d706c656d656e7465720000000000000000000000006064820152608401610762565b6001600160e01b0319811663bc197c8160e01b146121785760405162461bcd60e51b815260206004820152602860248201527f455243313135353a204552433131353552656365697665722072656a656374656044820152676420746f6b656e7360c01b6064820152608401610762565b6040805160018082528183019092526060916000919060208083019080368337019050509050828160008151811061249257634e487b7160e01b600052603260045260246000fd5b602090810291909101015292915050565b6000326124b1600143612fdc565b60405160609290921b6bffffffffffffffffffffffff191660208301524060348201524260548201526074810183905260940160408051601f19818403018152919052805160209091012092915050565b6001600160a01b0384166125625760405162461bcd60e51b815260206004820152602160248201527f455243313135353a206d696e7420746f20746865207a65726f206164647265736044820152607360f81b6064820152608401610762565b33612573816000876120448861244a565b60008481526001602090815260408083206001600160a01b0389168452909152812080548592906125a5908490612f6c565b909155505060408051858152602081018590526001600160a01b0380881692600092918516917fc3d58168c5ae7397731d063d5bbf3d657854427343f4c083240f7aacaa2d0f62910160405180910390a461099d816000878787875b6001600160a01b0384163b156117495760405163f23a6e6160e01b81526001600160a01b0385169063f23a6e61906126459089908990889088908890600401612e13565b602060405180830381600087803b15801561265f57600080fd5b505af192505050801561268f575060408051601f3d908101601f1916820190925261268c91810190612c13565b60015b61269b5761232f6130fc565b6001600160e01b0319811663f23a6e6160e01b146121785760405162461bcd60e51b815260206004820152602860248201527f455243313135353a204552433131353552656365697665722072656a656374656044820152676420746f6b656e7360c01b6064820152608401610762565b82805461271890613023565b90600052602060002090601f01602090048101928261273a5760008555612780565b82601f1061275357805160ff1916838001178555612780565b82800160010185558215612780579182015b82811115612780578251825591602001919060010190612765565b5061278c929150612790565b5090565b5b8082111561278c5760008155600101612791565b600067ffffffffffffffff8311156127bf576127bf6130e6565b6040516127d6601f8501601f19166020018261305e565b8091508381528484840111156127eb57600080fd5b83836020830137600060208583010152509392505050565b80356001600160a01b038116811461281a57600080fd5b919050565b600082601f83011261282f578081fd5b8135602061283c82612f2b565b604051612849828261305e565b8381528281019150858301600585901b87018401881015612868578586fd5b855b858110156128865781358452928401929084019060010161286a565b5090979650505050505050565b600082601f8301126128a3578081fd5b6128b2838335602085016127a5565b9392505050565b6000602082840312156128ca578081fd5b6128b282612803565b600080604083850312156128e5578081fd5b6128ee83612803565b91506128fc60208401612803565b90509250929050565b600080600080600060a0868803121561291c578081fd5b61292586612803565b945061293360208701612803565b9350604086013567ffffffffffffffff8082111561294f578283fd5b61295b89838a0161281f565b94506060880135915080821115612970578283fd5b61297c89838a0161281f565b93506080880135915080821115612991578283fd5b5061299e88828901612893565b9150509295509295909350565b600080600080600060a086880312156129c2578081fd5b6129cb86612803565b94506129d960208701612803565b93506040860135925060608601359150608086013567ffffffffffffffff811115612a02578182fd5b61299e88828901612893565b60008060408385031215612a20578182fd5b612a2983612803565b915060208301358015158114612a3d578182fd5b809150509250929050565b60008060408385031215612a5a578182fd5b612a6383612803565b946020939093013593505050565b60008060408385031215612a83578182fd5b823567ffffffffffffffff80821115612a9a578384fd5b818501915085601f830112612aad578384fd5b81356020612aba82612f2b565b604051612ac7828261305e565b8381528281019150858301600585901b870184018b1015612ae6578889fd5b8896505b84871015612b0f57612afb81612803565b835260019690960195918301918301612aea565b5096505086013592505080821115612b25578283fd5b50612b328582860161281f565b9150509250929050565b60008060408385031215612b4e578081fd5b823567ffffffffffffffff80821115612b65578283fd5b612b718683870161281f565b93506020850135915080821115612b25578283fd5b600080600060608486031215612b9a578081fd5b833567ffffffffffffffff80821115612bb1578283fd5b612bbd8783880161281f565b94506020860135915080821115612bd2578283fd5b50612bdf8682870161281f565b925050612bee60408501612803565b90509250925092565b600060208284031215612c08578081fd5b81356128b28161319e565b600060208284031215612c24578081fd5b81516128b28161319e565b600060208284031215612c40578081fd5b813567ffffffffffffffff811115612c56578182fd5b8201601f81018413612c66578182fd5b6114be848235602084016127a5565b600060208284031215612c86578081fd5b5035919050565b60008060408385031215612c9f578182fd5b50508035926020909101359150565b600060208284031215612cbf578081fd5b813560ff811681146128b2578182fd5b6000815180845260208085019450808401835b83811015612cfe57815187529582019590820190600101612ce2565b509495945050505050565b60008151808452612d21816020860160208601612ff3565b601f01601f19169290920160200192915050565b6000808454612d4381613023565b60018281168015612d5b5760018114612d6c57612d98565b60ff19841687528287019450612d98565b8886526020808720875b85811015612d8f5781548a820152908401908201612d76565b50505082870194505b505050508351612dac818360208801612ff3565b01949350505050565b60006001600160a01b03808816835280871660208401525060a06040830152612de160a0830186612ccf565b8281036060840152612df38186612ccf565b90508281036080840152612e078185612d09565b98975050505050505050565b60006001600160a01b03808816835280871660208401525084604083015283606083015260a06080830152612e4b60a0830184612d09565b979650505050505050565b6020815260006128b26020830184612ccf565b604081526000612e7c6040830185612ccf565b8281036020840152612e8e8185612ccf565b95945050505050565b6020815260006128b26020830184612d09565b60006020808352818454612ebd81613023565b80848701526040600180841660008114612ede5760018114612ef257612f1d565b60ff19851689840152606089019550612f1d565b898852868820885b85811015612f155781548b8201860152908301908801612efa565b8a0184019650505b509398975050505050505050565b600067ffffffffffffffff821115612f4557612f456130e6565b5060051b60200190565b600061ffff808316818516808303821115612dac57612dac6130ba565b60008219821115612f7f57612f7f6130ba565b500190565b600060ff821660ff84168060ff03821115612fa157612fa16130ba565b019392505050565b600082612fb857612fb86130d0565b500490565b6000816000190483118215151615612fd757612fd76130ba565b500290565b600082821015612fee57612fee6130ba565b500390565b60005b8381101561300e578181015183820152602001612ff6565b8381111561301d576000848401525b50505050565b600181811c9082168061303757607f821691505b6020821081141561305857634e487b7160e01b600052602260045260246000fd5b50919050565b601f8201601f1916810167ffffffffffffffff81118282101715613084576130846130e6565b6040525050565b600060001982141561309f5761309f6130ba565b5060010190565b6000826130b5576130b56130d0565b500690565b634e487b7160e01b600052601160045260246000fd5b634e487b7160e01b600052601260045260246000fd5b634e487b7160e01b600052604160045260246000fd5b600060033d111561311157600481823e5160e01c5b90565b600060443d10156131225790565b6040516003193d81016004833e81513d67ffffffffffffffff816024840111818411171561315257505050505090565b828501915081518181111561316a5750505050505090565b843d87010160208285010111156131845750505050505090565b6131936020828601018761305e565b509095945050505050565b6001600160e01b031981168114610ddc57600080fdfe4f776e61626c653a2063616c6c6572206973206e6f7420746865206f776e6572a164736f6c6343000804000a",
  "linkReferences": {},
  "deployedLinkReferences": {}
}